:020000040800F2
:10000000F80700209D0100089728000881240008B7
:100010009528000851080008493200080000000037
:10002000000000000000000000000000D5280008CB
:10003000310A000800000000992800082129000862
:10004000B7010008B7010008B7010008B7010008B0
:10005000B7010008B7010008B7010008B7010008A0
:10006000B7010008B7010008B7010008B701000890
:10007000B7010008B7010008B7010008B701000880
:100080007509000881090008B7010008B7010008D8
:10009000B7010008B7010008B7010008B701000860
:1000A000C9290008B7010008B7010008B701000816
:1000B000B7010008B7010008B7010008B701000840
:1000C000B7010008B7010008B7010008B701000830
:1000D000B7010008B70100083D320008B701000869
:1000E000B7010008B7010008B7010008B701000810
:1000F000B7010008B7010008B7010008B701000800
:10010000B7010008B7010008B7010008B7010008EF
:10011000B7010008B7010008B7010008B7010008DF
:10012000B7010008B7010008B7010008B7010008CF
:10013000B7010008B7010008B7010008B7010008BF
:10014000B7010008B7010008B7010008B7010008AF
:10015000B7010008B7010008B7010008B70100089F
:10016000B7010008B7010008B7010008B70100088F
:10017000B7010008B7010008B7010008000000003F
:10018000B7010008B7010008DFF80CD000F04EFB03
:1001900000480047513D0008F80700200648804706
:1001A00006480047FEE7FEE7FEE7FEE7FEE7FEE75C
:1001B000FEE7FEE7FEE7FEE7B9290008890100082F
:1001C0002DE9F05F0546002092469B46884606468C
:1001D000814640241BE0284641464746224600F01F
:1001E0003EFA53465A46C01A914110D3114618465A
:1001F000224600F025FA2D1A67EB01084F462246E9
:100200000120002100F01CFA17EB00094E41201ECE
:10021000A4F10104DFDC484631462A464346BDE8E6
:10022000F09FD2B201E000F8012B491EFBD27047CB
:100230000022F6E710B513460A4604461946FFF7B2
:10024000F0FF204610BD2DE9FE4F804681EA0300F5
:10025000C00F0C46009021F0004123F00045B8EBA0
:100260000200A94105D24046214690461C460B4655
:10027000024623F00040104347D0270DC7F30A0081
:10028000C3F30A510290401A019040286BDAC3F37D
:10029000130040F4801B0098924620B10023D2EB5B
:1002A000030A63EB0B0B01985946C0F1400250461C
:1002B00000F0C6F906460D4650465946019A00F030
:1002C000DEF910EB08006141002487EA115284EA4C
:1002D000E7731A4340D0009A62B3019A012A4FEAA9
:1002E000075215DC001B61EB02014FF0004202EAED
:1002F0000752CDE90042001C41F5801132462B46E1
:1003000000F015FA03B0BDE8F08F40462146F9E74A
:10031000001B61EB0201001C41F5801300185B41DA
:100320002018A2F5001747EB030140EAD570B61973
:100330006D4111E06D084FEA360645EAC0754FEA97
:100340000752001B61EB0201001C41F580114908B6
:100350004FEA30000019514132462B4603B0BDE848
:10036000F04F00F0D5B90098012240000023D0EBF7
:10037000020263EBE073009821464FEAE074B8EBA9
:10038000000061EB0401E9E783F000435BE781F0E3
:10039000004158E72DE9FE4F81EA030404F00044D0
:1003A00021F0004100944FF0000B23F0004350EA8D
:1003B00001045ED052EA03045BD0C3F30A54C1F3D4
:1003C0000A552C44A4F2F3340194A0FB0254C1F367
:1003D000130141F48011C3F3130343F4801301FBB1
:1003E000024400FB034E840A970A44EA815447EA18
:1003F0008357A4FB076802958D0A05FB07854FEA22
:10040000932C04FB0C542705029D4FEA065847EA3B
:100410001637B5EB08056EEB070C870E920E47EA10
:10042000811742EA8312A7FB0201B6EB0B0164EBD2
:1004300000042B0D43EA0C335E1844EB1C50DA46E3
:100440005146E7FB0201C5F313044FEA0B3343EABD
:1004500014534FEA0432019C43EA0603A4F10C044E
:100460000294009CCDE900B400F061F903B0BDE84E
:10047000F08F00200146F9E72DE9F04D81EA0304F1
:1004800004F0004B21F0004514464FF0000A23F021
:10049000004150EA050220D054EA01021DD0C5F304
:1004A0000A570246C5F31303C1F31300C1F30A56FA
:1004B00040F4801543F48013A7EB0608101BD646C2
:1004C00008F2FD3873EB050002D308F1010801E0E2
:1004D00092185B41B8F1000F03DA00200146BDE835
:1004E000F08D00204FF48011064684460EE0171B65
:1004F00073EB050705D3121B63EB050306434CEAB8
:10050000010C49084FEA300092185B4150EA01079C
:10051000EDD152EA030012D082EA040083EA050119
:10052000084305D0101BAB4106D20122002306E090
:1005300000224FF0004302E06FF0010253101AEB6B
:1005400006004CEB085110EB0A0041EB0B01BDE833
:10055000F04D00F0DDB80EB5C10F80EAE070084440
:10056000CA07002140F233438DE80E000A460B46CD
:1005700000F0DDF803B000BD70B5C1F30A5201F020
:1005800000450024C1F3130140F2FF3341F4801110
:100590009A4201DA002070BD40F233439A42A2F23F
:1005A000334203DC524200F05AF800E090402C4302
:1005B000F1D0404270BD00F0004230F000400AD05F
:1005C000C10D01F56071C0F3160042EA0151C20885
:1005D00040071143704700200146704701F0004377
:1005E00030B421F0004150EA010206D00A0DA2F514
:1005F0006072C1F31301002A02DC30BC0020704796
:10060000440F44EAC104C100E01830BC00EBC25002
:1006100000F047B830B50B460146002020220124E7
:1006200009E021FA02F59D4205D303FA02F5491BC0
:1006300004FA02F52844151EA2F10102F1DC30BDD6
:10064000202A04DB203A00FA02F100207047914092
:10065000C2F1200320FA03F3194390407047202A87
:1006600004DB203A21FA02F00021704721FA02F35C
:10067000D040C2F120029140084319467047202A19
:1006800006DBCB17203A41FA02F043EAE07306E0BA
:1006900041FA02F3D040C2F12002914008431946CA
:1006A00070470029A8BF7047401C490008BF20F0D0
:1006B0000100704710B4B0FA80FC00FA0CF050EA68
:1006C000010404BF10BC704749B1CCF1200421FAE9
:1006D00004F411FA0CF118BF012121430843A3EBE4
:1006E0000C01CB1D4FEA00614FEA102042BF0020F1
:1006F00010BC704700EBC35010440029A4BF10BCCD
:100700007047401C490008BF20F0010010BC704732
:1007100010B5141E73F1000408DA401C41F1000109
:1007200092185B411A4301D120F0010010BD2DE960
:10073000F04D92469B4611B1B1FA81F202E0B0FA57
:1007400080F220329046FFF77BFF04460F4640EAD6
:100750000A0041EA0B0153465A46084313D011469A
:1007600053EA010019D0C8F140025046FFF777FF65
:1007700005460E46504659464246FFF761FF08437C
:1007800005D0012004E020463946BDE8F08D002068
:10079000054346EAE0762C4337430A986305E40AAA
:1007A000A0EB08000022FD0A44EA47540A3002D5B3
:1007B00000200146E9E7010510196941DDE9084516
:1007C00000196941BDE8F04DA2E7C1F30A52C1F337
:1007D000130140F2FF3341F480119A4202DA002003
:1007E0000146704740F233439A42A2F2334202DCA0
:1007F0005242FFF734BFFFF723BF000030B5041E9D
:1008000071F1000404DB4FF00044404264EB01014D
:10081000141E73F1000405DB1C464FF000435242E6
:1008200063EB0403994208BF904230BD064C074D6C
:1008300006E0E06840F0010394E8070098471034B0
:10084000AC42F6D3FFF7A4FC803E0008A03E0008AF
:10085000FEE70000174810B50068FFF77CFE9FED2B
:10086000161B53EC112BFFF707FE9FED151B53ECE6
:10087000112BFFF78FFD9FED141B53EC112BFFF78E
:1008800089FD9FED131B53EC112BFFF783FDFFF741
:1008900073FE1149086001461048006801F0F2FD3E
:1008A0000F4C206003F038FA2068BDE8104002F0D9
:1008B00013B800002C000020000000000070B740BA
:1008C000000000000000104000000000000019407F
:1008D00000000000000026405800002050000020CA
:1008E00048000020174810B50068FFF734FE9FED60
:1008F000161B53EC112BFFF7BFFD9FED151B53EC9F
:10090000112BFFF747FD9FED141B53EC112BFFF745
:1009100041FD9FED131B53EC112BFFF73BFDFFF740
:100920002BFE1149086001461048006801F0E4FD03
:100930000F4C206003F0FEF92068BDE8104001F084
:10094000DDBF000028000020000000000070B7405C
:1009500000000000000010400000000000001940EE
:1009600000000000000026405C0000205400002031
:100970004C000020014800F0E1B8000034030020E2
:10098000014800F0DBB80000940300200168182340
:10099000CAB2103AB2FBF3F2054B6FF30901032A16
:1009A0009B5CC36500D9091D81650846704700003E
:1009B000603E000810B5014600208B698A6A4FF03E
:1009C000C07453B1B3F5005F15D072B1012A0CD0D9
:1009D000022A0AD0032A09D104E01AB1012A06D05A
:1009E000022A03D1C96AC90100D5012010BDC96A14
:1009F000A142FAD010BD002AF7D0012AF2D0022A73
:100A0000F3D0032AF3D010BD30B50468256825F46F
:100A100080252560046863608368402B036803D0E9
:100A200099600068C26030BD9A600068C16030BDE6
:100A3000704772B6FEE710EE101A0A0EC2700A0C6A
:100A400082700A0A42700170704700000448016811
:100A5000486A044A00B2106000224A6270470000EF
:100A6000D40100200000002004480168486A044ABC
:100A700000B2106000224A62704700008C01002022
:100A8000000000202DE9F0410446876D00F0C6FA11
:100A9000064694F835000025022806D080206065BF
:100AA00084F834500120BDE8F0812068016821F00D
:100AB000160101602068416921F080014161206CCC
:100AC00008B9A06C20B12068016821F0080101601C
:100AD0002068016821F0010101600CE000F09EFA3D
:100AE000801B052807D920206065032084F8350085
:100AF00084F83450D7E720680068C007EED194F836
:100B00005C103F208840B860012084F8350084F8EC
:100B100034500020C7E790F83510022903D0802117
:100B2000416501207047052180F835100068016893
:100B300021F0010101600020704700002DE9F84319
:100B400004464FF00009CDF8009063484FF4165169
:100B5000A56D0068B0FBF1F72E6894F85C100820D2
:100B600000FA01F131420FD021680A6852070BD513
:100B70000A6822F004020A6094F85C108840A860B9
:100B8000606D40F00100606594F85C104FF0010862
:100B900008FA01F0304208D021684969090604D5F5
:100BA000A860606D40F00200606594F85C1004205D
:100BB0008840304208D021680968890704D5A860B8
:100BC000606D40F00400606594F85C10102088406F
:100BD000304218D021680968090714D5A860206838
:100BE0000168490304D50068000308D5A16C07E03B
:100BF0000168C90503D4016821F008010160216C76
:100C000009B12046884794F85C1020208840304283
:100C100031D021680968C9062DD5A86094F835003F
:100C200005282068016806D0490347D500680003FD
:100C30001DD4616C1CE021F016010160206841693F
:100C400021F080014161206C08B9A06C20B12068BE
:100C5000016821F00801016094F85C103F20884091
:100C6000A86084F8358084F83490216D1FE0E16B32
:100C700009B120468847606D00282BD0606DC00701
:100C800014D0052084F835002068016821F00101A6
:100C900001600098401C0090B84203D820680068AA
:100CA000C007F6D184F8358084F83490E16C0029CF
:100CB00010D001B02046BDE8F04308470168C905DF
:100CC000D5D4016821F01001016084F8358084F8E2
:100CD0003490CCE7BDE8F883700000202DE9F041A6
:100CE000044600F09BF906465CB1022084F835000A
:100CF000002584F834502068016821F0010101606A
:100D00000DE00120BDE8F08100F088F9801B052886
:100D100005D920206065032084F83500F2E72068BB
:100D20000068C007F0D12268116820480140D4E96A
:100D300001031843D4E90336334318436369184366
:100D4000A3691843E3691843236A18430843616A97
:100D5000042903D1D4E90B13194308431060206818
:100D60004069666A20F0070130460E4301270428D7
:100D70000CD1A06A0643E06A40B12046FFF71AFE94
:100D800020B14020606584F83570BAE7206846617C
:100D90002046FFF7FBFD94F85C203F2191408160E5
:100DA000656584F835700020ACE700003F8010F0E6
:100DB0002DE9F0410446866D90F8340000250128A5
:100DC0000DD0012084F8340094F835700020012FF4
:100DD00007D084F8340002252846BDE8F0810220BF
:100DE000FBE7022784F8357060652046FFF70CFEAC
:100DF00094F85C103F208840B0602068016841F0A2
:100E000016010160206C20B12068016841F00801E2
:100E100001602068016841F001010160DCE7000029
:100E20002DE9F84FDFF8BCA10022012503264FF081
:100E30000F090AF1040BAAF1040E00BF0B6805FAB2
:100E400002F42340A34270D10F7907F00307012F6A
:100E500001D0022F16D187684FEA420806FA08FC33
:100E600027EA0C07D1F80CC00CFA08FC4CEA070C76
:100E7000C0F808C04768A7430C79C4F30014944035
:100E80003C4344600C79E443A4070AD0C4684FEAA9
:100E9000420C06FA0CF7BC438F6807FA0CF727439D
:100EA000C7600C7904F00304022C12D1D40800EBC3
:100EB000840CDCF820405707FF0E09FA07F824EAF3
:100EC0000804D1F8108008FA07F848EA0408CCF8BA
:100ED000208004684FEA420C06FA0CF7BC430F79F5
:100EE00007F0030707FA0CF7274307604C6814F470
:100EF000403F70D03C4C276847F480472760246807
:100F000022F0030704F480440094384C07EB040CEF
:100F1000DCF8084897074FEA177809FA08F7BC4346
:100F2000334FB84202D1002724E054E0314FB84299
:100F300001D101271EE0304FB84201D1022719E04C
:100F40002E4FB84201D1032714E02D4FB84201D1F2
:100F500004270FE02B4FB84201D105270AE02A4FA2
:100F6000B84201D1062705E0284FB84201D1072732
:100F700000E0082707FA08F72743CCF80878DAF8E2
:100F800000405746D1F804C09C435FEACC2C00D502
:100F90001C433C60DBF800405F46D1F804C09C4332
:100FA0005FEA8C2C00D51C433C60DEF8004077469D
:100FB000D1F804C09C435FEA8C3C00D51C433C60E4
:100FC000084F083F3C68D1F804C09C435FEACC3C22
:100FD00000D51C433C60521C102AFFF42FAFBDE823
:100FE000F88F0000083C01404438024000300140C6
:100FF000000002400004024000080240000C0240D1
:10100000001002400014024000180240001C024080
:101010000AB1816170470904FBE70000014880685C
:101020007047000064000020024881680278114483
:1010300081607047640000200B4810B5016841F4DE
:1010400000710160016841F480610160016841F450
:1010500080710160032000F06FF80F2000F006F8A7
:1010600000F024F8002010BD003C024070B50D4D8A
:1010700004464FF47A712878B1FBF0F00A49096808
:10108000B1FBF0F000F00AFB48B9102C07D20022A7
:101090002146501E00F030F800206C6070BD012029
:1010A00070BD000064000020700000200A4808B5F0
:1010B000016841F480410160006800F480400090C4
:1010C0000548001F016841F080510160006800F090
:1010D0008050009008BD000044380240002809DB21
:1010E00000F01F02012191404009800000F1E02042
:1010F000C0F8001170470000F0B40E4B1B680C469E
:10110000C3F30223C3F10705042D00D90425191DDB
:10111000072901D2002300E0DB1E012606FA05F1B3
:10112000491E214099409E40761E16403143F0BC36
:1011300002F09CB80CED00E0064900F007020868D8
:101140004FF6FF03184040EA0220034A10430860AC
:10115000704700000CED00E00000FA052DE9F047B3
:101160000E46050065D0DFF81481D8F80000F7B20C
:1011700000F00700B04207D288F80070D8F80000ED
:1011800000F00700B04254D128683D4C810712D5C9
:10119000400703D5206840F4E0502060287800071D
:1011A00003D5206840F4604020602068A96820F0E2
:1011B000F000084320602878C0072DD030496868C7
:1011C0000839012812D0022813D0032811D0096849
:1011D000890700292DDA216821F0030101432160EC
:1011E000FFF71CFF814641F2883A0EE00968890347
:1011F000EFE709688901ECE7FFF710FFA0EB0901B1
:10120000514502D90320BDE8F0872068696800F0E5
:101210000C00B0EB810FEFD1D8F80010404601F080
:101220000701B14207D90770006800F00700B0421B
:1012300001D00120E7E72878400705D52068E96854
:1012400020F4E050084320602878000706D5206885
:10125000296920F4604040EAC100206000F038F8BD
:101260002168084AC1F30311515CC840064908606F
:1012700006480068FFF7FAFE0020C4E7003C024081
:1012800008380240683E0008700000206800002016
:101290000448054900680968044AC1F38221515C89
:1012A000C84070477000002008380240783E0008AF
:1012B0000448054900680968044AC1F34231515C99
:1012C000C84070477000002008380240783E00088F
:1012D000154810B5006810F00C02144813D04110E6
:1012E000042A0FD0082A0ED10F4C241F226823682D
:1012F00002F03F025B0207D52068C0F38810A0FB14
:10130000010106E0084610BD2168C1F38811A1FB68
:1013100000010023FEF754FF2168C1F30141491C7D
:101320004900B0FBF1F010BD083802400024F40081
:101330002DE9F84F04006ED02078DFF84C93C007F9
:10134000A9F104054AD009F104000168C1F3810143
:10135000012908D00068C0F3810002280AD1D9F819
:101360000000400206D52868800337D56068002851
:10137000E1D033E06068B0F5803F10D0B0F5A02F29
:10138000286810D020F480302860286820F480205D
:1013900028606068A8B1FFF741FE06460DE02868A6
:1013A00040F48030F4E740F480202860F7E700BF85
:1013B000FFF734FE801B642873D828688003F7D5B4
:1013C0000CE0FFF72BFE064605E000BFFFF726FE08
:1013D000801B6428F0D828688003F7D42078DFF8D1
:1013E000AC8280074FF0000A3ED5A748001D016877
:1013F00011F00C0F08D00068C0F3810002280BD157
:10140000D9F80000400207D42868800716D5E068A4
:10141000012800D112E033E1E068B8B10120C8F83A
:101420000000FFF7FBFD064605E000BFFFF7F6FDF5
:10143000801B0228C0D828688007F7D52868216952
:1014400020F0F80040EAC10028600DE0C8F800A0D4
:10145000FFF7E4FD064604E0FFF7E0FD801B0228ED
:101460001FD828688007F7D42078000722D5864F38
:1014700087486169703771B101210160FFF7CEFDC6
:10148000064604E0FFF7CAFD801B022809D8386829
:101490008007F7D50EE0C0F800A0FFF7BFFD0646B5
:1014A00005E082E0FFF7BAFD801B02287DD838688E
:1014B0008007F7D42078400768D5DFF8CCB1002743
:1014C0000BF13C0BDBF80000C0000BD4DBF8001084
:1014D00041F08051CBF80010DBF80000012700F04C
:1014E000805000906B4E3068C00510D4306840F4D6
:1014F00080703060FFF792FD009005E0FFF78EFDF1
:101500000099401A022850D83068C005F6D55E4EC2
:10151000A0686C3601280FD00528306810D020F064
:1015200001003060306820F004003060A068B8B17D
:10153000FFF774FD00900FE0306840F00100F4E721
:1015400040F004003060F7E7FFF768FD0099411AAA
:1015500041F28830814266D830688007F4D50EE0C9
:10156000FFF75CFD009007E0FFF758FD0099411A76
:1015700041F28830814256D830688007F4D42FB1C8
:10158000DBF8001021F08051CBF80010A069C8B33F
:101590003D49091D0968C1F3810102294AD0022889
:1015A000504607D0C8F8600000E03CE0FFF736FD89
:1015B00004463BE04746C8F86000FFF72FFD0646AB
:1015C00005E000BFFFF72AFD801B02282BD8286802
:1015D0008001F7D4D4E907010843A16A2E4A4908DB
:1015E00002EB0141626A41EA8211084394F82C102F
:1015F00040EA0161C9F8001001203866FFF70EFDCE
:10160000044606E03EE000BFFFF708FD001B02288D
:1016100009D828688001F7D534E000BFFFF7FEFC49
:10162000001B022802D90320BDE8F88F286880013A
:10163000F4D427E00128F7D0D9F80000E26900F4DB
:10164000800191421CD1226A00F03F01914217D1E2
:1016500047F6C071626A0140B1EB821F10D1A26AE5
:101660004FF0FF3300F4403103EB5202B1EB024F75
:1016700006D194F82C1000F07060B0EB016F01D02F
:101680000120D1E70020CFE70438024000004742A4
:10169000800E4742007000400000FFFF10B5401E62
:1016A000B0F1807F01D3012010BD4FF0E0246061D4
:1016B0000F21601701F0DAFD0020A06107202061F2
:1016C000002010BD7047704770B590F83C20012A8B
:1016D00032D0012480F83C40022280F83D2003688B
:1016E0005A689D6822F070060A6832435A60134BAC
:1016F00002689A4214D0B2F1804F11D0104B9A4236
:101700000ED0104B9A420BD00F4B9A4208D00F4B81
:101710009A4205D00E4B9A4202D00E4B9A4204D107
:10172000496825F080031943916080F83D4000210D
:1017300080F83C10084670BD022070BD00000140DA
:101740000004004000080040000C0040000401407C
:10175000004001400018004010B5040003D094F888
:101760003D0010B107E0012010BD002084F83C00CE
:10177000204600F01FF8022084F83D00211D20685B
:1017800001F0B0F9012084F8460084F83E0084F8A6
:101790003F0084F8400084F8410084F8420084F857
:1017A000430084F8440084F8450084F83D0000209C
:1017B00010BD000008B500681149884209D11148E0
:1017C000016841F004010160006800F0040000902D
:1017D00008BD0D498842FBD10A48001D016841F44B
:1017E000803101600068002200F4803000901146D2
:1017F0001820FFF781FCBDE808401820FFF76EBCF9
:1018000000080040403802400040014090F83D1080
:10181000012901D001207047022180F83D100168A4
:10182000CA6842F00102CA6000681149884214D0B7
:10183000B0F1804F11D00F4988420ED00E49884236
:101840000BD00E49884208D00D49884205D00D4979
:10185000884202D00C49884204D1816801F0070116
:10186000062903D0016841F00101016000207047A2
:10187000000001400004004000080040000C00404F
:1018800000040140004001400018004070B50446CB
:1018900090F83C000025012817D0012684F83C6010
:1018A000022084F83D002068826822F0770222F44A
:1018B0007F4282600868502838D00DDC20284FD045
:1018C00005DC90B3102811D14AE0022070BD302809
:1018D00046D040280AD13BE060282FD070280DD098
:1018E000B0F5805F03D0B0F5005F12D0012584F819
:1018F0003D60002084F83C00284670BDCB68D1E9EB
:101900000121206801F05FF92068816841F07701CA
:1019100009E0CB68D1E90121206801F054F9206881
:10192000816841F480418160E1E719E0CA68496853
:10193000206801F01DFA5021206806E0CA68496855
:10194000206801F026FA6021206801F046F9CEE710
:10195000CA684968206801F00BFA40212068F4E762
:10196000226801461046F0E72DE9F0410D460400DB
:1019700003D094F83D0018B108E00120BDE8F081E3
:10198000002084F83C00204600F040F8022084F853
:101990003D002068816844F2070291438160211D67
:1019A000206801F09FF8226890689169166A2B6898
:1019B000AF69034340F20330814341EA0721A8683D
:1019C000EF6908434FF6FC418843E96840EA072085
:1019D000014328692F6A000140EA0730084369681B
:1019E0006D6926F0AA0646EA051529439360226828
:1019F000906154F8460B0162012004F81F09E0755C
:101A00002076E0762077A0750020B7E770B586B025
:101A1000044614216846FEF70BFC2949236800247C
:101A2000274A103902252748B3F1804F1ED0264E91
:101A3000B34219D1136843F002031360126802F035
:101A4000020205920A6842F001020A60096801F088
:101A500001010591C0210091CDE901546946CDE90C
:101A6000034500BFFFF7DCF906B070BD136843F013
:101A700001031360126802F0010205920A6842F045
:101A800001020A600A6802F0010205920A6842F047
:101A900002020A60096801260096CDE9015401F0AE
:101AA0000201CDE9046103946946FFF7B9F9082002
:101AB0000090CDE90154CDE9034669460348D1E7DA
:101AC0004038024000000240000400400004024090
:101AD00070B590F83E60044690F83F5090F8423060
:101AE00090F84320022021B104290ED0012E1BD1F1
:101AF00014E0012E18D1012B16D184F83E0084F891
:101B0000420001220021206820E0012D0CD1012A91
:101B10000AD184F83F0084F8430014E0012D03D17A
:101B2000012B01D1012A01D0012070BD84F83E00B3
:101B300084F83F0084F8420084F843000122002129
:101B4000206801F033F801220421206801F02EF80A
:101B50002068016841F001010160002070BD7047FC
:101B600070B50446006801694FF00005C943890754
:101B700015D4C168C943890711D4E91E0161012048
:101B80002077206880698007204602D0FFF7E7FFB2
:101B900004E000F0C3F8204600F055F925772068EE
:101BA0000169C943490717D4C168C943490713D418
:101BB0006FF004010161022020772068806910F431
:101BC000407F204602D0FFF7CAFF04E000F0A6F8ED
:101BD000204600F038F9257720680169C9430907D4
:101BE00016D4C168C943090712D46FF00801016116
:101BF000042020772068C0698007204602D0FFF7C4
:101C0000AEFF04E000F08AF8204600F01CF92577CA
:101C100020680169C943C90617D4C168C943C90608
:101C200013D46FF010010161082020772068C0698B
:101C300010F4407F204602D0FFF791FF04E000F04F
:101C40006DF8204600F0FFF8257720680169C94348
:101C5000C90708D1C168C943C90704D1891E0161F8
:101C6000204600F055F920680169C943090609D4E6
:101C7000C168C943090605D46FF08001016120469F
:101C8000FFF720FD20680169C943490609D4C168EE
:101C9000C943490605D46FF040010161204600F0B8
:101CA00038F920680169C94389060BD4C168C94362
:101CB000890607D46FF0200101612046BDE870401D
:101CC000FFF701BD70BD000010B586B004461421B9
:101CD0006846FEF7ADFA0E492068884215D10D48D6
:101CE0000021026842F008020260006800F008006B
:101CF00005904FF4405000900220CDE9010103907F
:101D0000049069460448FFF78BF806B010BD000048
:101D10000008004030380240000C0240704770B5A7
:101D2000044690F83C0000260D4601280FD0012003
:101D300084F83C006AB1042A1DD0082A2FD00C2A4E
:101D40003FD00126002084F83C00304670BD0220C0
:101D500070BD206800F04AFF2068816941F00801E9
:101D600081612068816921F00401816120688169B5
:101D70002A69114311E0206800F068FF206881693A
:101D800041F4006181612068816921F48061816191
:101D9000206881692A6941EA02218161D2E72068CD
:101DA00000F08AFF2068C16941F00801C161206824
:101DB000C16921F00401C1612068C1692A69114328
:101DC00011E0206800F0ACFF2068C16941F40061B7
:101DD000C1612068C16921F48061C1612068C16965
:101DE0002A6941EA0221C161ACE710B5040003D0C1
:101DF00094F83D0010B107E0012010BD002084F8E8
:101E00003C00204600F01EF8022084F83D00211D11
:101E1000206800F067FE012084F8460084F83E0048
:101E200084F83F0084F8400084F8410084F84200C0
:101E300084F8430084F8440084F8450084F83D00A9
:101E4000002010BD7047704710B50446022249B10A
:101E500004290ED0082913D094F84100012816D087
:101E6000012010BD94F83E000128F9D184F83E20ED
:101E70000FE094F83F000128F2D184F83F2008E0F9
:101E800094F840000128EBD184F8402001E084F868
:101E900041200122206800F089FE16492068164A78
:101EA000884201D0904203D1436C43F40043436421
:101EB0002068884213D0B0F1804F10D00F4988427B
:101EC0000DD00F4988420AD00E49884207D090426F
:101ED00005D00D49884202D00C49884204D181685E
:101EE00001F00701062903D0016841F001010160FA
:101EF000002010BD0000014000040140000400402B
:101F000000080040000C0040004001400018004064
:101F10007047704770477047F8B501680446086815
:101F2000CA684B6910F00F0F4FF000055AD003F04C
:101F3000010602F49077374365D0C10705D0D1057B
:101F400003D5216C41F001012164410705D5D90772
:101F500003D0216C41F002012164810705D5D90726
:101F600003D0216C41F004012164010707D502F080
:101F70002001314303D0216C41F008012164216C20
:101F800000293BD0800604D5900602D5204600F0FB
:101F9000E8FF20684069216CC0F3801001F008015F
:101FA000014320462BD000F0A7FF2068406940067F
:101FB00021D52068143050E8001F21F0400140E88E
:101FC0000012002AF5D1A06BA8B16C490165A06B85
:101FD000FEF7A1FD002811D0A06B016D01B0BDE896
:101FE000F040084783060ED593060CD52046BDE881
:101FF000F84000F0B6BF2046FFF78DFFF8BDFFF7B1
:102000008AFF2564F8BD266B2023012E79D1C606F0
:1020100077D5D60675D508684868009048694006A7
:1020200040D5A16B086840680004000CEAD0A28D7E
:102030008242E7D9E085C869B0F5807F2DD020685D
:102040000C3050E8001F21F4807140E80012002A93
:10205000F5D12068143050E8001F21F0010140E85C
:102060000012002AF5D12068143050E8001F21F03A
:10207000400140E80012002AF5D184F83E30256383
:1020800020680C3050E8001F21F0100140E80012D9
:10209000002AF5D1A06BFEF7F5FCA08DE18D401A6A
:1020A00081B229E0A08DE18D401A81B2E08D002837
:1020B000A8D00029A6D020680C3050E8002F22F4C8
:1020C000907240E80026002EF5D12068143050E8C8
:1020D000002F22F0010240E80026002EF5D184F8FE
:1020E0003E30256320680C3050E8002F22F01002AB
:1020F00040E80023002BF5D12046FFF70BFFF8BD89
:10210000FFE705062BD5150629D594F83D002128B3
:10211000F5D1A068B0F5805F01D12069B0B1206A27
:10212000411C2162216800784860E08C401E000458
:10213000000CE084E3D12068C16821F08001C16017
:102140002068C16841F04001C160D8E7206A00887A
:10215000C0F308004860206A801C2062E5E7400662
:10216000CDD55006CBD5CA68204622F04002CA60C1
:1021700084F83D3000F082F9C1E70000B72D000877
:1021800070B5040004D094F83D00002510B106E0BD
:10219000012070BD84F83C50204600F023F8242034
:1021A00084F83D002068C16821F40051C1602046D8
:1021B00000F038FF2068016921F490410161206836
:1021C000416921F02A0141612068C16841F4005150
:1021D000C1602564202084F83D0084F83E00002082
:1021E00070BD00002DE9F04186B006461421684616
:1021F000FEF71EF83E4F31683E48022203230725B2
:102200000024B9421DD13B4914310E6846F0100636
:102210000E60096801F010010591016841F00101AB
:1022200001600068694600F00100059058028DE8E1
:102230001500CDE903353048FEF7F2FD06B0BDE8E4
:10224000F0812E4FB942F9D12A4910310F6847F475
:1022500000370F60096801F400310591016841F011
:10226000080101600068694600F0080005906020E0
:102270008DE81500CDE903352148FEF7D1FD224D4B
:1022800020484FF000672860C5E901744FF480686A
:10229000C5E903486C61AC61EC612C6228466C6254
:1022A000FEF71CFD08B1FEF7C4FBB563AE63164D27
:1022B000144860351830E5E802074020A5E8110110
:1022C000114845F814496030AC61EC612C626C62D5
:1022D000FEF704FD08B1FEF7ACFB75630022114662
:1022E0002620AE63FEF708FF2620FEF7F7FEA5E7DF
:1022F000001001403038024000000240004400401D
:10230000000C0240886002403403002090F83E3008
:10231000202B0ED159B152B190F83C30012B08D08E
:10232000012380F83C300023036300F001BF01204B
:102330007047022070477047704700002DE9F8434E
:10234000044690F83D001F4616460D4620284CD105
:10235000C5B1BEB194F83C00012846D0012084F8F4
:102360003C004FF00008C4F84080212084F83D0074
:10237000FEF754FEA6848146E684A068B0F5805F2F
:1023800003D004E00120BDE8F883206928B12E467F
:102390005FF0000584F83C800EE00026FAE780211B
:1023A000204600F00FFFA0B9AEB116F8010B21686E
:1023B0004860E08C401EE084E08C4B464FF0000209
:1023C00000970028EBD14FF04001204600F0FAFEC4
:1023D00030B10320D7E735F8020BC0F30800E6E779
:1023E000202084F83D000020CDE70220CBE700004C
:1023F00070B5044690F83D00202836D191B38AB3D9
:1024000094F83C00012830D0012084F83C0021627F
:10241000A284E28400252564212084F83D00636BBA
:102420001348D863636B13481864636B1248D8640D
:10243000606B134605652668606B321DFEF7B8FCBD
:1024400021686FF04000086084F83C502068143028
:1024500050E8001F41F0800140E80012002AF5D149
:10246000002070BDFFE70120FBE70220F9E7000034
:10247000AD2E0008EF2E0008C72D000870477047EA
:10248000FEE70000081A00EE100A17481749B8EED8
:10249000C00A90ED021AD1ED001A154970EE410AFA
:1024A000B0EE002A60EEA10AD1ED001A114941EE0A
:1024B000800AF0EE401A41EE421A90ED031A31EE16
:1024C000811AD1ED001A41EE810A90ED011A70EEE9
:1024D000810AC0ED010A80ED020A80ED030ABDEE1B
:1024E000E00A10EE100A7047040000203C000020B3
:1024F0004000002044000020081A00EE100A17488F
:102500001749B8EEC00A90ED061AD1ED001A154928
:1025100070EE410AB0EE002A60EEA10AD1ED001A79
:10252000114941EE800AF0EE401A41EE421A90ED58
:10253000071A31EE811AD1ED001A41EE810A90EDB1
:10254000051A70EE810AC0ED050A80ED060A80EDDD
:10255000070ABDEEE00A10EE100A704704000020E2
:102560003C000020400000204400002010B50C4C2E
:1025700001280DD0002812D1012202212046FEF7A9
:1025800047FD00222046BDE810400421FEF740BD73
:10259000002202212046FEF73BFD0122F2E710BD9A
:1025A000000002400D4808B5016841F400110160C7
:1025B0000068002200F40010009011461020FEF781
:1025C0009BFD1020FEF78AFD002211461120FEF728
:1025D00093FDBDE808401120FEF780BD3038024071
:1025E00030B587B014216846FDF722FE1948002453
:1025F000016841F080010160016801F080010591EE
:10260000016841F001010160016801F001010591DB
:10261000016841F008010160016801F008010591BD
:10262000016841F00201016000680B4D00F00200FA
:10263000059000221E212846FEF7EAFC1E2000908D
:102640000120CDE90104694628460394FEF7E8FB22
:1026500007B030BD303802400000024010B58CB0E9
:1026600024216846FDF7E4FD0024154809944FF045
:1026700080410A94C0E90014611EC0E9024104616E
:1026800084610320CDE900040120CDE902040A2180
:102690000491CDE90540CDE9074169460848FFF7B7
:1026A00063F908B1FEF7C5F9099409A904480A9429
:1026B000FFF70AF8002801D0FEF7BBF90CB010BDF7
:1026C0008C01002010B58CB024216846FDF7B0FDC8
:1026D00000241648099414490A94C0E900144FF6DE
:1026E000FF71C0E90241046184610320CDE9000467
:1026F0000120CDE902040A210491CDE90540CDE98C
:10270000074169460948FFF72FF908B1FEF791F92B
:10271000099409A905480A94FEF7D6FF002801D0BC
:10272000FEF787F90CB010BD00040040D401002072
:1027300010B58EB000240794089409940A940B9461
:102740001C2168460C94FDF773FD22482049016066
:102750004721C0E901146321C0E90314802181618C
:10276000FEF7FAFF08B1FEF764F94FF480500790C6
:1027700007A91848FFF78AF808B1FEF75AF9154873
:10278000FFF733FB08B1FEF754F90B940BA911487E
:102790000C94FEF799FF08B1FEF74BF96020CDE9E4
:1027A00000040294002269460A480494FFF7B7FA2D
:1027B00008B1FEF73EF9042269460648FFF7AFFA72
:1027C00008B1FEF736F90348FFF77EFA0EB010BDE8
:1027D000000800401C0200201FB500211048009195
:1027E000019102910D4A0391026041F61F42C0E936
:1027F00001216322C0E903218161FEF7ADFF08B129
:10280000FEF717F94FF48050009069460448FFF72F
:102810003DF8002801D0FEF70CF91FBD0040014033
:10282000640200200C4810B50A4901604FF4E13100
:102830004160002181600C22C160C0E90412816105
:10284000C161FFF79DFC002803D0BDE81040FEF7F2
:10285000F0B810BD00100140AC0200200C4810B5CB
:102860000A4901604FF4E1314160002181600C228E
:10287000C160C0E904128161C161FFF781FC0028D9
:1028800003D0BDE81040FEF7D4B810BD00440040AE
:10289000F0020020FEE7FEE77047000010B50C4C88
:1028A00001280DD0002812D1012208212046FEF770
:1028B000AFFB00222046BDE810401021FEF7A8BB68
:1028C000002208212046FEF7A3FB0122F2E710BDFB
:1028D000000002407047000010B5040001D5002040
:1028E00000E00120FFF742FE204601F07DFA024998
:1028F0000968486310BD00001C02002010B50400E8
:1029000001D5002000E00120FFF7C8FF204601F0BC
:102910006BFA02490968886310BD00001C020020A0
:10292000FEF782BB30B593B030216846FDF780FCDE
:1029300014210CA8FDF77CFC1D480025016841F01E
:1029400080510160006800F08050119019480168C2
:1029500041F4804101600068022400F4804011903D
:102960000120039010200490009406940820CDE9E3
:102970000750A820CDE9090404200B906846FEF713
:10298000D7FC08B172B6FEE70CA90F2081E8310030
:102990004FF4A0500F904FF48050109005210CA8D8
:1029A000FEF7DCFB002801D072B6FEE713B030BDA5
:1029B00040380240007000400248016841F4700154
:1029C0000160704788ED00E070B52DED088B2F4851
:1029D000FFF7C6F8FEF748F82D4C2060FEF736F8F2
:1029E0002C49054608602068FDF7B5FD9FED2ABB20
:1029F00053EC1B2BFDF740FD9FED299B53EC192B4E
:102A0000FDF73AFD9FED288B53EC182BFDF7C2FC28
:102A10009FED27AB53EC1A2BFDF7BCFCFDF7DEFD59
:102A20002549044608602846FDF795FD53EC1B2B0D
:102A3000FDF722FD53EC192BFDF71EFD53EC182B6F
:102A4000FDF7A8FC53EC1A2BFDF7A4FCFDF7C6FD1F
:102A50001A4D28602046FDF7AEFD41EC100B18A082
:102A600053EC102B00F0F2FB2868FDF7A4FD41ECBD
:102A7000100B17A053EC102B00F0E8FBFDF7EAFE5B
:102A8000BDEC088BBDE87040FDF72CBF6402002050
:102A900054000020500000200000000000002640EC
:102AA0000000000000001940000000000000D03FBE
:102AB000000000000070B740380000203400002003
:102AC000726D705F72696768743D252E3366090008
:102AD000726D705F6C6566743D252E3366090A0A57
:102AE00000000000F0B50268254C264D264E274F09
:102AF000274B4FF0804CA04209D0604507D0A84238
:102B000005D0B04203D0B84201D0984204D122F09F
:102B1000700E4A6842EA0E02A0421BD0604519D0EE
:102B2000A84217D0B04215D0B84213D0984211D065
:102B3000184DA8420ED0184DA8420BD0174DA842F0
:102B400008D0174DA84205D0164DA84202D0164D08
:102B5000A84203D122F44075CA682A434D6922F085
:102B600080022A4302608A68C2620A688262A042C6
:102B700001D0984201D10969016301214161F0BD91
:102B8000000001400004004000080040000C00402C
:102B90000004014000400140004401400048014061
:102BA00000180040001C00400020004010B501F05B
:102BB0001F030121046A99408C430462016A9A4010
:102BC0001143016210BD10B5846842EA032224F467
:102BD0007F440A432243826010BD826822F0700263
:102BE0000A4342F00701816070470000F0B5026AB5
:102BF00022F001020262036A42688469124E24F0E4
:102C000073050C682C4323F002058B682B430D4D94
:102C1000A84201D0B04205D123F00807CB683B435E
:102C200023F00403A84201D0B04205D14D6922F43B
:102C3000407215438A692A4342608461496841634E
:102C40000362F0BD0000014000040140F0B5026ADB
:102C500022F010020262026A436884690D6824F45B
:102C6000E64444EA05248D6822F0200242EA051277
:102C70000F4D104EA84201D0B04206D1CF6822F0CD
:102C8000800242EA071222F04002A84201D0B0427C
:102C900007D14D6923F4406343EA85038D6943EA14
:102CA000850343608461496881630262F0BD00006E
:102CB0000000014000040140F0B5026A22F4807275
:102CC0000262026A4368C46922F4007224F0730548
:102CD0000C68124E2C438D6842EA05220E4DA84224
:102CE00001D0B04206D1CF6822F4006242EA072246
:102CF00022F48062A84201D0B04207D14D6923F48A
:102D0000405343EA05138D6943EA05134360C461E8
:102D10004968C1630262F0BD000001400004014047
:102D200030B5026A22F480520262046A4268C369C2
:102D30000D6823F4E64343EA05238D6824F4005428
:102D400044EA0534084DA84202D0084DA84204D1F7
:102D50004D6922F4804242EA85124260C3614968AB
:102D60000164046230BD0000000001400004014025
:102D700010B5036A046A24F001040462846924F033
:102D8000F00444EA021423F00A020A438461026256
:102D900010BD10B5036A23F0100303628369046A4F
:102DA00023F4704343EA023224F0A00343EA011102
:102DB0008261016210BD10B5806B0021C185C184A4
:102DC000FFF7A9F810BD70B5846B2068406994F8CE
:102DD0003D10C0F3C0100025212904D118B1E584AD
:102DE000204600F0B0F82068406994F83E10C0F327
:102DF0008010222904D118B1E585204600F07CF826
:102E0000206C40F0100020642046FFF784F870BD6D
:102E100010B50146806B09680968C9052FD40021E7
:102E2000C18501680C3151E8002F22F4807241E81D
:102E30000023002BF5D10168143151E8002F22F056
:102E4000010241E80023002BF5D10168143151E85B
:102E5000002F22F0400241E80023002BF5D1202171
:102E600080F83E10016B012909D101680C3151E84D
:102E7000002F22F0100241E80023002BF5D1016B56
:102E8000012902D0FFF757FA10BD818DFFF742F8F4
:102E900010BD10B5806B016B012902D0FFF74CFA11
:102EA00010BD818D4908FFF735F810BD10B50146FA
:102EB000806B09680968C90516D40021C1840168BE
:102EC000143151E8002F22F0800241E80023002B4A
:102ED000F5D101680C3151E8002F42F0400241E881
:102EE0000023002BF5D110BDFFF7C8FA10BD10B5B7
:102EF000806BFFF7C4FA10BD01680C3151E8002F58
:102F000022F4907241E80023002BF5D101681431BE
:102F100051E8002F22F0010241E80023002BF5D1F7
:102F2000016B012909D101680C3151E8002F22F011
:102F3000100241E80023002BF5D1202180F83E103B
:102F400000210163704701680C3151E8002F22F025
:102F5000C00241E80023002BF5D1202180F83D106C
:102F6000704708B590F83E10222901D0022008BD14
:102F700082684FF480539A4201D1016921B1816A7C
:102F80009A421BD04AB10AE00268816A5268C2F3D1
:102F900008020A80816A891C08E0026972B102682D
:102FA000526802F07F020A70816A491C8162C18DF9
:102FB000491E0904090CC18503D019E00268526852
:102FC000F1E70168CA6822F02002CA600168CA6895
:102FD00022F48072CA6001684A6922F001024A61E3
:102FE000202180F83E10016B012903D0FFF7A3F9DF
:102FF000002008BD0021016301680C3151E8002F59
:1030000022F0100241E80023002BF5D101680A6884
:10301000D20602D50A6849680091818DFEF77AFFD1
:10302000E6E7000070B5044600680169E26821F433
:103030004051114301612169A068E2690843616957
:10304000114308432168CA6849F20C639A4302435A
:10305000CA6020684169A26921F44071114341614D
:1030600031492068884202D03049884202D1FEF7B7
:103070001FF901E0FEF70CF9E2690023192164252C
:103080003226B2F5004F626828D0A0FB0101930FF1
:103090009200FDF795F80146B0FBF5F06FF01802CD
:1030A000504301EB800006EB0010B0FBF5F000F0A0
:1030B000F002B1FBF5F002EB0012B1FBF5F06FF09E
:1030C0001803584301EB800006EB0010B0FBF5F04D
:1030D00000F00F0021681044886070BDA0FB010162
:1030E00092185B41FDF76CF80146B0FBF5F0020168
:1030F000B1FBF5F06FF01803584301EB800006EBCD
:10310000C000B0FBF5F000F0F80002EB4002B1FBAC
:10311000F5F0584301EB800006EBC000B0FBF5F082
:1031200000F00700D6E70000001001400014014045
:1031300038B5816282850025134604460564222045
:1031400084F83E00A26B1C48D063A26B1B4810643D
:10315000A26B1B48D064A06B0A4605652168A06B72
:10316000091DFDF725FE206801684068009084F87D
:103170003C50206948B120680C3050E8001F41F4F1
:10318000807140E80012002AF5D12068143050E820
:10319000001F41F0010140E80012002AF5D120682B
:1031A000143050E8001F41F0400140E80012002AAE
:1031B000F5D1002038BD0000112E0008932E000824
:1031C000C72D00082DE9F041984617460E460446E3
:1031D000069D27E0681C25D02DB1FDF71FFFA0EB51
:1031E0000800A8421ED920680C3050E8001F21F4C6
:1031F000D07140E80012002AF5D12068143050E860
:10320000001F21F0010140E80012002AF5D1202022
:1032100084F83D0084F83E00002084F83C00032040
:10322000BDE8F0812068006836EA000004D0002084
:10323000B842CFD00020F3E70120F9E70148FEF7BC
:103240006BBE0000F0020020FEE700000FB4054B4B
:1032500010B503A9044A029800F0DAF810BC5DF832
:1032600014FB0000013D0008600000200907090E62
:10327000002804DB00F1E02080F80014704700F023
:103280000F0000F1E02080F8141D704702E008C82C
:10329000121F08C1002AFAD170477047002001E0D0
:1032A00001C1121F002AFBD1704700002DE9FF5F0A
:1032B000DDE90220010DDDF838B0024318D044F6F4
:1032C0001050A1F2FF3141430D140F98012820D076
:1032D000A5EB0B00401C5FEA000A4FF00004474ECC
:1032E000DFF81C91A046504616D5CAF1000728E029
:1032F0000F98012443A2012808D0002100980F9BB9
:10330000C0E90021C0E90243BDE8FF9F6FEA0B015D
:10331000F4E7CBF10000DEE7074612E0F80707D03C
:103320002246334640464946FDF734F880468946F2
:103330002246334610461946FDF72CF804460E4641
:103340007F10002FEAD1DDE90201BAF1000F4246F9
:103350004B4602DAFDF71EF801E0FDF78DF8044652
:103360000E460022284BFDF749FA03D84FF0FF30F4
:10337000014607E00022254B20463146FCF763FF5B
:10338000FDF723FA102409E0002C0ADB0A220023AF
:10339000FCF716FF019B30321A55641E50EA0102F9
:1033A000F2D1641C019AC4F1110314440F9A012A4A
:1033B00003D0012208430DD10AE0084304D00020C5
:1033C0004FF0110B0F9080E7A3EB0B056D1E0DE086
:1033D0005B4504DD4FF0000205F1010504E003DA6E
:1033E0004FF00002A5F10105002AECD000980F99DA
:1033F000C0E90231C0E9004586E700000000244032
:103400000000F03F300000000000F0430000E03F0B
:103410002DE9FF4F95B09B468946064600250FE2F1
:10342000252877D100242746F84A0121059400E099
:10343000044316F8013F203B01FA03F01042F7D194
:1034400030782A2811D06FF02F033078A0F13002A5
:10345000092A16D8059A44F0020402EB820203EB13
:1034600042021044761C0590EFE759F8042B0592B0
:10347000002A03DA504244F40054059044F0020458
:10348000761C30782E2816D116F8010F44F004046B
:103490002A280DD06FF02F023078A0F13003092BCD
:1034A00009D807EB870302EB4303C718761CF3E741
:1034B00059F8047B761C30786C280FD006DC4C2839
:1034C00017D068280DD06A2814D104E0742810D0D1
:1034D0007A280FD10DE044F400140AE044F480147B
:1034E00001E044F440147278824202D104F5801461
:1034F000761C761C307866280BD013DC582877D0E1
:1035000009DC002875D04528F6D04628F4D0472895
:103510001AD19DE118E0632835D0642879D0652858
:1035200012D195E1702873D008DC6728F1D06928A2
:103530006FD06E280DD06F2806D1B5E073282CD03F
:10354000752875D0782874D05A46179990476D1C05
:1035500075E1C4F30250022809D003280DD0D9F830
:10356000001004280DD00D6009F1040967E1D9F8B5
:103570000010EA17C1E90052F6E7D9F800100D80F3
:10358000F2E70D70F0E719F8041B8DF80010002029
:103590008DF80100EA46012003E059F804AB4FF032
:1035A000FF3061074FF0000102D40DE008F1010186
:1035B0008846B9420FDA8045F8DB1AF8081000296E
:1035C000F4D108E008F1010188468142FADB1AF8DB
:1035D00008100029F6D105985B46A0EB08072146A4
:1035E0003846179A00F094FA284400EB080507E0E3
:1035F0004DE029E10DE01AF8010B5A461799904762
:10360000B8F10108F7D25B4621463846179A13E114
:1036100042E00A220092C4F302524FF0000A022A4A
:1036200008D059F804CB032A4FEAEC710AD00DE018
:1036300029E02AE009F1070121F00702F2E802C1BE
:10364000914609E00FFA8CFC4FEAEC71042A03D191
:103650004FFA8CFC4FEAEC71002907DA0A46002188
:10366000DCF1000C61EB02012D2202E0220504D501
:103670002B228DF80420012203E0E20701D0202252
:10368000F7E7904659E00A2102E010220DE01021F0
:103690004FF0000A00910BE010224FF0000A44F0B6
:1036A00004040827009203E008224FF0000A009269
:1036B000C4F30252022A05D059F804CB0021032A90
:1036C00008D009E009F1070121F00702F2E802C180
:1036D000914605E01FFA8CFC042A01D10CF0FF0C86
:1036E0004FF00008220728D5702806D0009B83F0F1
:1036F000100353EA0A0305D00EE040228DF804209F
:10370000012208E05CEA010206D030228DF8042094
:103710008DF8050002229046009B83F0080353EACF
:103720000A030AD15CEA010201D1620705D5302201
:103730008DF804204FF001087F1E582804D034A0D3
:1037400003900EA802900DE036A0F9E753466046BC
:10375000009AFCF735FD84460398825C0298401E6F
:10376000029002705CEA0100F0D1029806A9081AE2
:1037700000F1200A600702D524F4803400E001271C
:10378000574502DDA7EB0A0000E0002000EB0A012C
:10379000009005984144401A0590E00306D45B462A
:1037A0002146179A059800F0B3F90544002706E072
:1037B00001A85A46C05D179990476D1C7F1C47456C
:1037C000F6DBE0030CD55B462146179A059800F01E
:1037D0009FF9054404E030205A46179990476D1C24
:1037E0000099481E00900029F5DC08E00298029933
:1037F0005A460078491C0291179990476D1CBAF1FE
:103800000001AAF1010AF1DC65E1000009280100CC
:103810003031323334353637383961626364656646
:103820000000000030313233343536373839414208
:10383000434445460000000000F058F90544761C5A
:10384000307800287FF4ECAD19B02846BDE8F08F41
:10385000620700D4062709F1070222F0070CFCE8F2
:103860000223E14603F000485FEA080C02D00FF2A1
:10387000702C0DE05FEA045C02D50FF2682C07E0C3
:103880005FEAC47C02D00FF2602C01E0AFF2700C52
:103890004FF0FF3823F00043CDF850C065280CD01E
:1038A00006DC452809D046281DD047283DD13DE0FB
:1038B000662818D067287ED138E00021112F01DB5F
:1038C000112000E0781CCDE9000106A90EA8FFF741
:1038D000EDFCDDE90F010E9A03910021009207F142
:1038E000010A04914DE04FF000400097CDE901102E
:1038F00006A90EA8FFF7DAFCDDE90F0203920E9B82
:1039000011990022DDF80CA00093049211B9791CE2
:1039100000EB010AB7EB0A0004D4C0F1FF3007F155
:10392000010A0490AAEB0700019044E0012F00DA9D
:1039300001270021112F01DD112000E03846CDE9DB
:10394000000106A90EA8FFF7B1FCDDE90F010E9AF0
:103950000391002104910092BA4621070CD40399E7
:10396000514500DA8A46BAF1010F05DD009AAAF145
:103970000101515C302908D0B84202DA10F1040F7D
:1039800006DA0121CDE9011015E0AAF10101E9E70C
:10399000002805DC049901440491AAEB000102E02F
:1039A000411C514500DD8A460499401A401C019093
:1039B0004FF000400290200704D40198504501DBED
:1039C000CDF8048000208DF84F0002980DF14F07CC
:1039D000B0F1004F25D02B200E9002984FF0020836
:1039E00000280CDA404202902D200E9007E00A21B8
:1039F0000298FCF70FFE3031029007F8011DB8F174
:103A00000001A8F10108F2DC02980028EFD1791E2C
:103A10000E980870307800F0200040F0450007F85C
:103A2000020D12A8C01B00F107081498007800B11D
:103A3000012000EB0A01019801EBE0710598414477
:103A4000401A401E0590E00306D45B462146179AB3
:103A5000059800F05DF805441498007818B15A46AE
:103A6000179990476D1CE00324D55B462146179AB1
:103A7000059800F04DF805441CE00498002807DB89
:103A8000DDE90301884203DD0098405C179901E0FD
:103A9000179930205A469047049805F10105401CBB
:103AA00004900198401E019004D12E205A46179987
:103AB00090476D1CBAF10001AAF1010ADDDC05E0B6
:103AC00017F8010B5A46179990476D1CB8F1000181
:103AD000A8F10108F4DC5B462146179A0598ABE68D
:103AE0002D0000002B000000200000002DE9F04117
:103AF000044600251E461746880404D405E03946CE
:103B00002020B0476D1C641EF9D52846BDE8F08121
:103B10002DE9F041044600251E469046C80301D514
:103B2000302700E02027880404D505E041463846C8
:103B3000B0476D1C641EF9D52846BDE8F081000031
:103B400010B50B4C22681368DB435B06FBD458B1FD
:103B50008AB201460648FEF74BFC20680168C9435B
:103B60004906FBD4002010BD4FF0FF3010BD00000F
:103B7000F002002010B50B4C002202212046FDF778
:103B800047FA012204212046FDF742FA00220821CB
:103B90002046FDF73DFA20460122BDE810401021E5
:103BA000FDF736BA000002402DE9F047454A2DEDF9
:103BB000048B5068010000D540429568002D01DB60
:103BC0002E4600E06E429FED408B414C002944DBC5
:103BD000FCF7C1FC8A464AEC100B804653EC182BCC
:103BE00051EC100BFCF7D6FB41EC190B7000FCF705
:103BF000B2FC894649EC100B064653EC192B51ECEC
:103C0000100BFCF720FBFCF7B7FC4AEC108B0746C7
:103C100053EC182B51EC100BFCF7BCFB41EC100BD8
:103C200049EC116B53EC102B51EC110BFCF7ACFB76
:103C300043E000BFC4E9010703E079424042C4E920
:103C4000010124A0A168FFF701FB616826A0BDEC7B
:103C5000048BBDE8F047FFF7F9BAFCF77CFC8A4615
:103C60004AEC100B804653EC182B51EC100BFCF770
:103C700091FB41EC190B7000FCF76DFC894649EC97
:103C8000100B064653EC192B51EC100BFCF77CFB88
:103C9000FCF772FC4AEC108B074653EC182B51ECE6
:103CA000100BFCF777FB41EC110B49EC106B53EC5C
:103CB000112B51EC100BFCF7C6FAFCF75DFC002D44
:103CC000BBDBB7E780010020000000000000E03F00
:103CD000240000207461726765745F72706D5F6CA0
:103CE0006566743D256420007461726765745F7257
:103CF000706D5F72696768743D25640A0A20000070
:103D000013B54FF47A73012269460248FEF716FB99
:103D100000981CBDAC020020054864225342016893
:103D2000994201DA036070476429FCDD0260704744
:103D3000480000200548642253420168994201DA94
:103D4000036070476429FCDD026070474C0000206E
:103D5000FDF772F9FEF7E6FDFEF742FCFEF722FCE6
:103D6000FEF7E6FCFEF77AFCFEF75CFDFEF734FD9D
:103D7000FEF7A8FCFEF772FD3C211448FDF7A8FEF3
:103D80003C211348FDF7A4FE00211248FEF75CF821
:103D900004211048FEF758F80E480F4C0268E168FD
:103DA000516300688163FFF7E5FE0C48FDF72EFDC7
:103DB00020880B4982B20B48FEF7A8FA00F018F8E9
:103DC00000F022F8FFF7F0FEF2E700008C0100207F
:103DD000D40100201C0200202400002064020020E6
:103DE00074000020F0020020002800DA40427047F2
:103DF0000348044950F8012F4A60406888607047C2
:103E0000740000208001002010B5134BA520134C36
:103E10001870581C94ED040AFCF70DFE581D94ED23
:103E2000050AFCF708FE587899781A790844D97879
:103E3000114408445979084499790844D9790844C7
:103E4000197A084458725A209872BDE810400B2124
:103E50000148FFF775BE0000730100202400002018
:103E600000061016000610160000000000000000FA
:103E70000102030406070809000000000102030410
:103E8000A03E000800000020740000008C320008F2
:103E9000143F000874000020840700009C320008D2
:103EA0000000000000000000000000000000000012
:103EB0000000000000000000000000000000000002
:103EC000000000000B00000046000000460000005B
:103ED0003200000000000000000000000000803FF1
:103EE000295C8F3DCDCC4C3D00000000000000005F
:103EF00000000000000000000000000000000000C2
:103F000000000000010000001000000000000000A0
:043F10000024F40095
:040000050800018965
:00000001FF
